:10000000682B00308A000408840A82070034C03458
:10001000F934A434B034993492348234F8348034CE
:0E002000903488348334C634A13486348E3450
:1006D0008301BD2B013083128C000030831A01305E
:1006E000013E742B03108C0DFF3E031D722B0C0872
:1006F000FF3A8D000D0883058501860101308C00CD
:100700000030831A0130013E872B03108C0DFF3E11
:10071000031D852B0C088D000D088304FF30831604
:1007200085008601080083128C018D018C018D01EA
:100730000D08803ACF0080304F02031DA12B64309A
:100740000C02031CA42BA52BA72BBC2BBC2B01300C
:1007500083128C0703188D0A00308D070D08803A2C
:10076000CF0080304F02031DB72B64300C02031CF6
:10077000BA2BBB2BA72BBC2B080083128E018F0139
:100780006A23C22B8312051CC62BC72BF92B0E081C
:10079000013E840001208600851CCF2BD02BE12B4D
:1007A00001308E0703188F0A00308F0710300E06B5
:1007B0000F04031DDC2BDD2BF72B8E018F01F72B94
:1007C000F72BFF308E0703188F0AFF308F07FF309B
:1007D0000F06031DED2BFF300E06031DF02BF12B32
:1007E000F72B0F308E0000308F00F72BF72B932361
:1007F000C22BFF3083128600C22BC22BC22B0028D3
:00000001FF
